:020000040800F2
:1000000000B000208D2C0008832C0008852C0008EF
:10001000872C0008892C00088B2C000800000000A9
:10002000000000000000000000000000832C000819
:10003000832C000800000000832C0008832C00089B
:10004000812C0008812C0008812C0008812C0008DC
:10005000812C0008812C0008250E00082D0E0008B8
:10006000350E00083D0E0008450E0008812C0008E2
:10007000812C0008812C0008812C0008812C0008AC
:10008000812C0008812C0008812C000895100008A4
:10009000B5100008812C0008812C00084D0E0008C6
:1000A000812C0008812C0008812C0008812C00087C
:1000B000812C0008812C0008812C0008812C00086C
:1000C000812C0008812C0008812C0008812C00085C
:1000D000812C0008812C0008812C0008812C00084C
:1000E000550E0008812C0008812C0008812C000886
:1000F000812C0008812C0008812C0008812C00082C
:10010000812C0008812C0008812C0008812C00081B
:10011000812C0008812C0008812C0008812C00080B
:10012000812C0008812C0008812C0008812C0008FB
:10013000812C0008812C0008812C0008812C0008EB
:10014000812C0008812C0008812C0008812C0008DB
:10015000064B1B685843C00806D0013800BF00BFDB
:1001600000BF00BF00BFF8D1704700BF00000020F3
:1001700009B1014B0B6070475834000809B1014BBD
:100180000B6070476C34000809B1014B0B6070477D
:100190008034000809B1014B0B60704794340008AB
:1001A00009B1014B0B607047A8340008704709B1D2
:1001B000014B0B60704700BFBC3400087047EF294B
:1001C0000DD1074B93F8EF205E2A08D1D3F8E82031
:1001D000044B05481A60054B054A1A60B8E770479A
:1001E00060000020FCBF0020E09304000CED00E064
:1001F0000400FA05014800F0E9BC00BF60010020DE
:10020000014800F0AFBD00BFA4010020F8B5094EC1
:100210000F4615460024A5420BDD2A1B202A07EBBA
:100220000401A8BF2022D6F8600100F017FF203497
:10023000F1E7F8BD60000020044A1368800500F46F
:10024000400023F44003184310607047041002403C
:1002500070B50B4D0B4C2A6821688306800303F0B0
:10026000805680B222F0805222F440423043104344
:1002700003F0005321F0005213432860236070BD47
:10028000041002402C10024070B5064686B00420CF
:1002900001F0C2FA042001F0B7FA002001F022FBBD
:1002A000032001F0B9FA032001F0AEFA012001F0B9
:1002B00019FB002001F0C8FB0720FFF7C9FF04204D
:1002C00001F0B8FB002001F0ABFB174D0320FFF756
:1002D000B3FF002001F0AEF80FCD6C460FC495E8D7
:1002E000030006AB84E8030003EB860656F8180CFF
:1002F00001F002FB012001F01DFB002001F024FBB6
:10030000002001F089FA002001F07EFA022001F0BD
:10031000E9FA064A064B1360064A07491160074A84
:10032000136006B070BD00BFC83400085400002040
:1003300000D8B80558000020006CDC025C000020EA
:1003400070B5064686B0042001F066FA042001F07C
:100350005BFA002001F0C6FA032001F05DFA0320E9
:1003600001F052FA012001F0BDFA002001F06CFB0F
:100370000B20FFF76DFF042001F05CFB002001F073
:100380004FFB174D0220FFF757FF002001F052F8F6
:100390000FCD6C460FC495E8030006AB84E803005C
:1003A00003EB860656F8180C01F0A6FA012001F0BE
:1003B000C1FA002001F0C8FA002001F02DFA002057
:1003C00001F022FA022001F08DFA064A064B136072
:1003D000064A07491160074A136006B070BD00BFA6
:1003E000C834000854000020000E270758000020E1
:1003F000008793035C000020124B10B508220320F5
:100400001A6001F009FA042001F006FA4FF4002105
:10041000032001F04BFF01F01BFE4FF4FA60FFF7E1
:1004200097FE01F09BFE044644F62060FFF790FE25
:1004300001F094FE201A4FF4C853C0F31300584340
:1004400010BD00BF0000002008B540F2023001F0EE
:1004500077FD40F2033001F073FD4FF4417001F07D
:100460006FFD4FF44070BDE8084001F069BD10B564
:10047000FFF7C2FF114B124C984214D9114B98420E
:1004800016D903F5F60303F6C843984212D903F5CB
:10049000F50303F5395398420ED80320FFF750FFB8
:1004A0007823236010BD0520FFF7EEFE6023F8E7F8
:1004B0000420F9E70320F7E70220F5E7578C47010E
:1004C000000000201FDDA601034A43681060026897
:1004D00082F30888184700BF08ED00E0F8B51C4B10
:1004E0001A681C4B9A4228D01B4BD3E9000116A373
:1004F000D3E90023994208BF90424FF001041ED077
:10050000164ED6E9017504FA05F5ADB2294638460E
:1005100001F062F82B4602220021384601F012F861
:100520000A20FFF715FEB068336984401B68A4B247
:100530001C420CBF01200020F8BD0120FCE7204632
:10054000FAE700BFAFF30080BEBA0BB0CEFAEFBE41
:10055000FCBF0020BEBAADDE004400080000002051
:100560002DE9F843474CD4F87031054646188BB155
:10057000D4F87031032B0BDCB54280F08180E21897
:1005800015F8011B82F874110133C4F87031EFE7DC
:10059000B54275D2D4F87031042B2ED1D4F8E000D6
:1005A00000F17843A3F58043B3F5703F1DD2C0F34B
:1005B0000A03D4F874710BB900F0CEFE324B194621
:1005C0001A68D207FCD4314B1A6842F001021A6053
:1005D000D4F8E020B8B23F0C108057800A68D007EA
:1005E000FCD41A6822F001021A60D4F8E030043317
:1005F000C4F8E0300023C4F87031DFF88C90234F4A
:1006000005F10408B0452CD8D4F8E00000F1784397
:10061000A3F58043B3F5703F1CD2C0F30A0358F82A
:10062000045C0BB900F098FED9F80030DA07FBD46F
:100630003B6843F001033B60D4F8E030AAB22D0CD4
:100640001A805D80D9F80030DB07FBD43B6823F0CB
:1006500001033B60D4F8E0300433C4F8E030454691
:10066000CEE7D4F87031032B0ADCB54208D2E21889
:1006700015F8011B82F874110133C4F87031F0E7EA
:10068000BDE8F883600000200C20024010200240EA
:10069000E429009802D11946FFF762BF704780B580
:1006A0000D4A0E4C0E4D03210127D2E9063007FA00
:1006B00003F303602046FFF74BFDD2E906604FF4D9
:1006C0008033B34003602046FFF742FD0139ECD18F
:1006D0002846FFF73DFDE6E700000020A086010068
:1006E00040420F0010B50023934203D0CC5CC454A9
:1006F0000133F9E710BD0244904202D000F8011B1B
:10070000FAE7704700207047704702460346981A80
:1007100013F8011B0029FAD1704770B5594C5A4D96
:10072000D4F8003186B005F16C02C4F800210393BF
:10073000049AD4F804310493C4F80421D4F808319D
:10074000059AC4F8082103A8059300F0F5F8D4F839
:100750000C31039305F15802D4F81031C4F80C2180
:10076000049AC4F810210493059AD4F8143105931F
:1007700003A8C4F8142100F0E8F8D4F81831039362
:1007800005F14402D4F81C31C4F81821049AC4F8C5
:100790001C210493059AD4F82031059303A8C4F8CA
:1007A000202100F0DBF8D4F82431039305F1300266
:1007B000D4F82831C4F82421049AC4F828210493D9
:1007C000059AD4F82C31059303A8C4F82C2100F025
:1007D000CEF8FF23C4F834312C4BC4F844314FF425
:1007E0008043C4F8483105F11C02D4F84C3103931E
:1007F00006AED4F85031C4F84C21049AC4F8502104
:100800000493059AD4F85431059303A80835C4F825
:100810005421C4F8304100F0AAF846F8185D03A945
:10082000304600F0C6F81A4B03991A68196004990B
:1008300003925A6859600599049203A89A689960CE
:10084000059200F069F803A9304600F0B2F8D4F838
:100850006431039AC4F864210393049AD4F868318C
:100860000493C4F86821D4F86C31059AC4F86C215B
:1008700003A8059300F050F8304600F04DF806B09C
:1008800070BD00BF6000002050340008D801002077
:100890009842002080B51D4C1D4DFFF7E8FD022356
:1008A0000127002684F8F030FF2384F8F33084F821
:1008B000F17084F8F26084F8F460FFF72EFF00F026
:1008C000CFFDD5E90A124FF480338B401360AB6A39
:1008D000686A07FA03F39BB23246394600F032FEEB
:1008E0000C48FFF735FCAB6A686A07FA03F39BB262
:1008F0003A46314600F026FE304600F071FB04F522
:10090000A274E061204600F049FAFBE76000002095
:1009100000000020E093040003685A1C10B5044650
:1009200001D09B689847204610BD10B5044604309E
:10093000FFF7F2FF204610BD03685A1C10B50446AD
:1009400001D09B689847204610BD03685A1C10B51B
:10095000044601D09B689847204610BD03685A1C86
:1009600010B5044601D09B689847204610BD036827
:100970005A1C10B5044601D09B689847204610BD0C
:1009800010B504460830FFF7F2FF204610BD10B541
:1009900004462430FFF7EBFF04F11800FFF7DEFFF9
:1009A00004F10C00FFF7D1FF2046FFF7C5FF2046FA
:1009B00010BD03685A1C01D05B68184770470000DF
:1009C00010B5FFF741FDFFF789FD044608B1FFF7B9
:1009D00061FF0248FFF778FD204610BD0040000887
:1009E000F8B51C4C1C4F1D494FF0FF363A4604F534
:1009F000B0700025C4F86461FFF786FE184B1949F2
:100A0000C4F800613A4604F58070C4F80C61C4F87B
:100A10001861C4F82461C4F83051C4F83451C4F8E2
:100A20003851C4F83C31C4F84051FFF76DFEC4F8AA
:100A30005851C4F84451C4F84851C4F84C61C4F842
:100A40005C513A4604F5A2700749BDE8F840FFF74B
:100A50005BBE00BF60000020340000202B090008AE
:100A600000FFFF008F090008810900080000000056
:100A7000274B70B5036022A3D3E90023C0E902230A
:100A800021A3D3E90023C0E904236523038300F5F0
:100A90001753002100224183DA6000F519531D4AE3
:100AA0001A6042F244634FF48062C15042F24863DC
:100AB0000446C252184D42F2B0521C30FFF71BFEE2
:100AC00004F51753103305F130062A4603CAB24223
:100AD00018605960154603F10803F6D10F4A04F572
:100AE000185402F14005134603CBAB42206061600D
:100AF0001A4604F10804F6D170BD00BFAFF30080C0
:100B000000E1F5050000000000E9A4350000000048
:100B1000351208803333333FF034000820350008A5
:100B200038B52DED028B03782D2B044648D10125D5
:100B300001342046FFF7E6FD07EE900AB8EEE78A9B
:100B4000204614F8013BA3F13002092AF8D92E2BD4
:100B500013D12246B7EE007AF2EE046A104612F87C
:100B6000013B303B092B08D887EE267A07EE903AF6
:100B7000F8EEE77AA7EE878AF0E7037803F0DF0361
:100B8000452B15D10130FFF7BDFDF2EE047A034687
:100B9000002B09DC0028A8BF001AF2EE047A38B155
:100BA00088EE278A0130FAE728EE278A013BEFE733
:100BB0000DB1B1EE488AB0EE480ABDEC028B38BDEB
:100BC0002B2B4FF00005B4D1B2E700BF2DE9F74F52
:100BD000066C002E04460F4615462CDD9642A8BF33
:100BE000164690F83D100097334600220C3000F076
:100BF000AFF8236C9B1B002B236400F3A3803E44BF
:100C0000DFF848A12F444FF0000804F11809BE4254
:100C100080F09880A26B16F8015B8AB984F83C508A
:100C2000002DF4D00D2D08D10122514604F12400ED
:100C300000F095F8EBE70E46E2E70123A363E6E751
:100C4000012A94F83C302BD1212B84F83D5084F8B4
:100C50003F5016D1AA1C84F83E20A3F11002022AAC
:100C60001CD8616B0D40216B112B294404F1240029
:100C700010D0122B10D0012200F071F8C4F8388087
:100C8000C5E7222B01D12A1DE5E7232BE5D105F18C
:100C90000802E0E70222EFE70422EDE70223CDE7B6
:100CA000202B21D00BD8132B01D0182BE6D1236891
:100CB00094F83D101B682A4620469847DEE7232B10
:100CC00021D9282BDAD1A7EB060B5D45C4F8388073
:100CD00004F10C0094F83D1000962CDC2B462A46BB
:100CE00000F036F82E4492E7626B94F83D301340E2
:100CF000226BD554A36994F83D101B68C4F8388062
:100D00004846984783E794F83D30626B1340226B66
:100D1000D55494F83D3094F83E200133DBB29A422A
:100D200084F83D307FF473AFA369C4F838801B6842
:100D300094F83F10E4E72A465B46A5EB0B0500F06C
:100D400007F8256403B0BDE8F08F00BF60350008E8
:100D500010B404682468A4465DF8044B6047036837
:100D60001B681847836970B544694568BFF35B8F9A
:100D7000013B013D1B1B2B409342D4BFE218A2183C
:100D80002A40944206D0036811F8016B1E550134C5
:100D90002C40F6E7BFF35B8F446170BD70B582698C
:100DA0004569BFF35B8FAA42044615D0016800F184
:100DB0000806114406D2AA1A3046FFF7D0FFA561F3
:100DC000012070BD436830469A1AFFF7C8FF002D16
:100DD000F5D02A462168EFE70020F2E72DE9F84335
:100DE00005464FF0FF30884600F0B0F9074600F0A6
:100DF000A7F90C240A4E6C434FF0010945450DDA62
:100E0000A3595A1C06EB040005D009FA05F23A4230
:100E100001D01B68984701350C34EFE7BDE8F88333
:100E2000D841002001210020FFF7D8BF0221012076
:100E3000FFF7D4BF03210220FFF7D0BF0421032016
:100E4000FFF7CCBF05210420FFF7C8BF0A2105200A
:100E5000FFF7C4BF10210A20FFF7C0BF38B5054C0B
:100E6000A4F1C00520460C3C00F054F8AC42F9D186
:100E700038BD00BF8C4200202DE9F04186B06C46A1
:100E800084E803000C24224E4C4398463359013326
:100E90000F4606EB040538D11368591C03D05B6874
:100EA00003A910469847039A33593251049A039381
:100EB0006B686A60059A049303A8AB68AA600593FF
:100EC00000F028F8062001F02FFF072001F02CFF8A
:100ED000082001F029FF092001F026FF0A2001F077
:100EE00023FF0124172001F01FFFBC40282001F040
:100EF0001BFF0099204600F02FF920465FFA88F189
:100F000000F0E8F8204600F003F906B0BDE8F081F3
:100F1000D841002003685A1C10B5044601D09B68D4
:100F20009847204610BD0000064A00234FF0FF31CD
:100F300099500C33C02BFBD1034A04490020FFF722
:100F4000E3BB00BFD8410020340000205D0E000844
:100F50004878202804D0A0F1220358425841704715
:100F60001888062894BF00200120704737B5104B21
:100F700000930446002540230222012101F0EAF9F2
:100F80002046009540230222822101F0E3F9204609
:100F9000009510230322832101F0DCF9054B7F2209
:100FA0002121204603B0BDE8304001F0C7BA00BFA0
:100FB000B90F0008510F000810B590B040236A46E1
:100FC000012101F0F0F90246044801684B1C02D0EF
:100FD0000C686946A04710B010BD00BF98420020C1
:100FE00030B5044685B040F2023000F0A9FF154D3F
:100FF0004FF4237000F0A4FF80230293124913489A
:1010000005F10C030193032301F112020093002C5C
:1010100018BF21460E4B01F063F90E49044601F05A
:1010200062FD0D4AC5F88C40136843F47F4313609A
:10103000132001F079FE142001F076FE204605B061
:1010400030BD00BF98420020643500083C360008DF
:10105000480000206D0F0008405C004070B5044659
:101060000D4696B233462A468221204601F093F976
:1010700028B94FF47A7300BF013BFCD1F2E770BD91
:1010800008B593B20A46822101F085F9003018BFF5
:10109000012008BD08B5054BD3F88C0008B101F05C
:1010A0004FF9034B00221A6008BD00BF9842002090
:1010B000445C0040FFF7EEBF0348044A04494FF088
:1010C000FF330360FFF720BB98420020340000206C
:1010D0001909000801290CD002D3022911D0704748
:1010E0000A4A136803431360536823EA0000506000
:1010F0007047064A136823EA0003136053681843D5
:10110000F5E7024A13680343F7E700BF080401400C
:10111000034A1368034313605368184350607047D1
:1011200000040140044A1368C04303401360034BAA
:101130001A68104018607047000401400404014020
:10114000014B1860704700BF14040140014B1B683D
:1011500018407047140401402DE9F04FDFF888E093
:10116000DFF88880DFF88890DFF888A000224FF051
:10117000010C0F270CFA02F3034222D0174B9942BD
:1011800026D005D849450CD051451FD0002309E091
:10119000134B99421ED071451ED04145F6D1042310
:1011A00000E001230F4C04EB9205AD0002F00306B2
:1011B000B6002C6807FA06FB24EA0B04B3401C4374
:1011C0002C600132102AD5D1BDE8F08F0223E9E767
:1011D0000323E7E70523E5E70623E3E700140140DF
:1011E000001C014002400010002001400018014096
:1011F000000C014000100140024A136843F008034C
:101200001360704700200240024A136823F008036D
:10121000136070470020024008B501F011FEB0F5E0
:10122000007F0AD9054A136843F080031360044B1A
:10123000044A1A6002F188321A6008BD5020024048
:101240004420024023016745024A136843F08003AB
:10125000136070475020024008B501F0F1FDB0F571
:10126000007F81BF024A136843F00403136008BD86
:101270004C20024008B501F0E3FDB0F5007F81BFCE
:10128000024A136843F02003136008BD4C2002405B
:1012900008B501F0D5FDB0F5007F81BF024A1368A3
:1012A00043F01003136008BD4C20024008B500F065
:1012B000F3F800F0E9F800F0F7F801F0C1FDB0F53F
:1012C000007F07D9FFF7C8FFFFF7D4FFBDE808404C
:1012D000FFF7DEBF08BD0000064B10B51C6801F02B
:1012E000AFFDB0F5007F82BF034B1868044304F0E4
:1012F000350010BD0C2002404C20024038B5044699
:101300000D4600F0D9F801F09BFDB0F5007F18D92B
:101310000E4B9C4215D90E4A136843F0010313602B
:10132000258000F0C9F801F08BFDB0F5007F0AD9E7
:10133000064B9C4207D9064A136823F00103136049
:1013400038BD044AE8E7034AF6E700BFFFFF070895
:10135000502002401020024010B5044600F0ACF8C6
:1013600001F06EFDB0F5007F1DD9134B9C421AD9D8
:10137000124B1A6842F002021A60114A14601A688D
:1013800042F040021A6000F097F801F059FDB0F504
:10139000007F0FD9084B9C420CD9084A136823F0F0
:1013A0000203136010BD074B1A6842F002021A6074
:1013B000054AE3E7034AF1E7FFFF07085020024030
:1013C00054200240102002401420024010B5104C5E
:1013D00000F072F8236843F004032360236843F0AD
:1013E0004003236000F068F8236823F004032360BF
:1013F000236C43F004032364236C43F04003236411
:1014000000F05AF8236C23F00403236410BD00BFDE
:1014100010200240024A136843F010031360704723
:1014200000200240024A136823F010031360704743
:1014300000200240034A136823F00703184310609A
:10144000704700BF00200240034B044A1A6002F1BB
:1014500088321A60704700BF0820024023016745A8
:10146000034B044A1A6002F188321A60704700BFC9
:101470000420024023016745024A136843F08003B9
:101480001360704710200240024A136843F02003A3
:10149000136070470C200240024A136843F00403B3
:1014A000136070470C200240024A136843F0100397
:1014B000136070470C20024008B5FFF70DFFC3070B
:1014C000FBD408BD38B505460C4689B2FFF716FFB8
:1014D000210CA81CBDE83840FFF710BF10B50B4C1D
:1014E000FFF7EAFF23689B0501D4FFF7ADFF2368F0
:1014F00043F020032360236843F040032360FFF799
:10150000DBFF236823F02003236010BD102002407E
:1015100070B50B4C05460E46FFF7CEFF23689B05C2
:1015200001D4FFF791FF236843F0100323602E805E
:10153000FFF7C2FF236823F01003236070BD00BFD4
:10154000102002402DE9F0439C46036847680026BE
:101550004FF00F0E43F6F8784CFA06F4E4071AD56C
:10156000B4B2072E8BBF4444A400A400A4B28ABF27
:10157000A4B29946B9460EFA04F529EA0509A51C54
:1015800002FA05F501FA04F42C4344EA0904082E92
:101590002CBF274623460136102EDDD1036047605D
:1015A000BDE8F0830143024B41F0800119607047B0
:1015B00000000140034A136823F0E063194301432C
:1015C0001160704704000140024A1368184310601C
:1015D000704700BF1C0001400161704709040161B0
:1015E0007047806808407047C36801EA030221EA37
:1015F000030141EA024101617047806880B270478F
:10160000C160704741F48033836181618361836984
:1016100083697047024A136843F080731360704710
:101620000010024006280AD8DFE800F0040A0F1470
:10163000191E2300114A136843F480131360704786
:101640000E4A136843F40013F8E70C4A136843F496
:101650008003F3E7094A136843F40023EEE7074ADF
:10166000136843F48023E9E7044A136843F4003322
:10167000E4E7024A136843F48033DFE708100240CE
:1016800006280AD8DFE800F0040A0F14191E230008
:10169000114A136843F48053136070470E4A13686D
:1016A00043F40053F8E70C4A136843F48043F3E72C
:1016B000094A136843F40063EEE7074A136843F4EA
:1016C0008063E9E7044A136843F40073E4E7024ADD
:1016D000136843F48073DFE70810024006280AD835
:1016E000DFE800F0040A0F14191E2300114A1368E2
:1016F00023F48053136070470E4A136823F4005399
:10170000F8E70C4A136823F48043F3E7094A1368A7
:1017100023F40063EEE7074A136823F48063E9E7E4
:10172000044A136823F40073E4E7024A136823F4BD
:101730008073DFE70810024008B5134B062821D854
:10174000DFE800F004080C1014181C001868C0F33F
:10175000001008BD1868C0F34010FAE71868C0F31D
:101760008010F6E71868C0F3C000F2E71868C0F30D
:101770008000EEE71868C0F34000EAE7186800F060
:101780000100E6E701F058FB08100240024A136826
:1017900043F400031360704708100240024B1868BE
:1017A000C0F3C010704700BF08100240062822D8BE
:1017B000DFE800F004090E13181D1F000F4B186816
:1017C000C0F3406070470D4B1868C0F3C0607047AD
:1017D0000A4B1868C0F340707047084B1868C0F394
:1017E00040407047054B1868C0F340007047044BF9
:1017F000F9E7044BF7E70020704700BF00100240F4
:10180000201002402410024008B502461046FFF79F
:10181000CDFF0028FAD008BD06280CD8DFE800F07C
:1018200004060C11161B1D00FFF7F4BE0C4A1368CA
:1018300043F0806313607047094A136843F0805394
:10184000F8E7074A136843F48033F3E7044A136860
:1018500043F00103EEE7034AF9E7034AF7E700BF65
:1018600000100240201002402410024006280AD82E
:10187000DFE800F0040A0F14191E20000E4A136856
:1018800023F08073136070470B4A136823F0806362
:10189000F8E7094A136823F08053F3E7064A136810
:1018A00023F48033EEE7044A136823F00103E9E7E9
:1018B000024AF9E7024AF7E700100240201002400E
:1018C00024100240024A136843F400231360704757
:1018D00000100240024A136823F40023136070478B
:1018E00000100240034A136823F0030318431060FA
:1018F000704700BF04100240034A136823F47013BA
:1019000043EA80401060704704100240034A1368A5
:1019100023F4706343EA0020106070472C100240EB
:10192000034A136823F4704343EA003010607047A1
:101930002C100240034A136823F4803343EA00402A
:101940001060704704100240034A136823F4003308
:1019500043EA40401060704704100240024B186890
:1019600000F40040704700BF20100240024A136894
:1019700043F40043136070472010024006283DD80E
:10198000DFE800F037373726370415001C4B1A689C
:1019900042F001021A601A689007FCD51A6822F416
:1019A00040721A601A6842F480721A607047154BD0
:1019B0001A6842F001021A601A689107FCD5104BB0
:1019C0001A6822F440721A601A6842F40072ECE756
:1019D0000D4B1A6842F480321A601A689203FCD5E3
:1019E000074B1A6822F440721A601A6842F4407277
:1019F000DBE7034A136823F440731360704700BFAA
:101A0000201002402410024000100240034A1368D4
:101A100023F4404343EA80301060704704100240D2
:101A2000034A136823F4605343EAC02010607047F0
:101A300004100240034A136823F4E06343EA0020E1
:101A40001060704704100240034A136823F0F0034B
:101A500043EA00101060704704100240044B1A68FB
:101A600018B142F480021A60704722F48002FAE74B
:101A700004100240034A136823F00F031843106058
:101A8000704700BF2C100240034A136823F0F00394
:101A900043EA0010106070472C100240044B1A6893
:101AA00018B142F480321A60704722F48032FAE7AB
:101AB0002C100240024B1868C0F38100704700BF31
:101AC0000410024008B50420FFF7A6FE0420FFF72B
:101AD0009BFE0020FFF706FF0020FFF7B5FF032065
:101AE000FFF794FF0420FFF7A5FF0020FFF798FF02
:101AF0000220FFF79FFC0E20FFF7FEFE0020FFF7FD
:101B000019FFFFF787FD0020FFF77EFE0220FFF799
:101B1000E9FE044A044B1360044A05491160054A72
:101B2000136008BD540000200090D003580000202E
:101B30000048E8015C00002008B50420FFF76CFEB7
:101B40000420FFF761FE0020FFF7CCFE0020FFF726
:101B50007BFF0320FFF75AFF0420FFF76BFF0020F5
:101B6000FFF75EFF0F4A136843F480031360012000
:101B7000FFF760FC0A20FFF7BFFE0020FFF7DAFE48
:101B8000FFF748FD0020FFF73FFE0220FFF7AAFE07
:101B9000054A064B1360064A06491160064A13605F
:101BA00008BD00BF0410024054000020006CDC029D
:101BB0005800002000366E015C00002008B50420AB
:101BC000FFF72AFE0420FFF71FFE0020FFF78AFE22
:101BD0000020FFF739FF0020FFF718FF0020FFF774
:101BE00029FF0020FFF71CFF0020FFF723FC042043
:101BF000FFF782FE0020FFF79DFEFFF70BFD0020A0
:101C0000FFF702FE0220FFF76DFE044A044B13604B
:101C1000044A1360044A136008BD00BF540000204A
:101C200000366E01580000205C00002008B504203A
:101C3000FFF7F2FD0420FFF7E7FD0020FFF752FE5B
:101C40000320FFF7E9FD0320FFF7DEFD0120FFF78A
:101C500049FE0020FFF7F8FE0020FFF7D7FE002026
:101C6000FFF7E8FE0020FFF7DBFE0020FFF7E2FBB6
:101C70000120FFF741FE0120FFF75CFE0020FFF787
:101C800063FEFFF7C7FC0020FFF7BEFD0220FFF751
:101C900029FE044A044B1360044A1360044A13608B
:101CA00008BD00BF5400002000366E01580000201F
:101CB0005C00002008B50420FFF7AEFD0420FFF70C
:101CC000A3FD0020FFF70EFE0320FFF7A5FD032074
:101CD000FFF79AFD0120FFF705FE0020FFF7B4FE95
:101CE0000320FFF793FE0420FFF7A4FE0020FFF778
:101CF00097FE0220FFF79EFB0720FFF7FDFD012066
:101D0000FFF718FE0020FFF71FFEFFF783FC0020FF
:101D1000FFF77AFD0220FFF7E5FD044A044B13604C
:101D2000044A05491160054A136008BD54000020AB
:101D300000A24A0458000020005125025C00002047
:101D400008B50420FFF768FD0420FFF75DFD0020C3
:101D5000FFF7C8FD0320FFF75FFD0320FFF754FDE9
:101D60000120FFF7BFFD0020FFF76EFE0220FFF706
:101D70004DFE0420FFF75EFE0020FFF751FE02201B
:101D8000FFF758FB0420FFF7B7FD0120FFF7D2FD56
:101D90000020FFF7D9FDFFF73DFC0020FFF734FDE1
:101DA0000220FFF79FFD044A044B1360044A0549D3
:101DB0001160054A136008BD5400002000A24A04C7
:101DC00058000020005125025C00002008B50420C6
:101DD000FFF722FD0420FFF717FD0020FFF782FD2B
:101DE0000320FFF719FD0320FFF70EFD0120FFF789
:101DF00079FD0020FFF728FE0220FFF707FE0420F0
:101E0000FFF718FE0020FFF70BFE0220FFF712FB82
:101E10000720FFF771FD0120FFF78CFD0120FFF780
:101E200093FDFFF7F7FB0020FFF7EEFC0220FFF722
:101E300059FD044A044B1360044A05491160054AE0
:101E4000136008BD5400002000A24A04580000207E
:101E5000005125025C00002008B50320FFF7DCFCE0
:101E60000320FFF7D1FC0120FFF73CFD0220FFF724
:101E7000E1FA0020FFF7E8FD0220FFF7C7FD04208C
:101E8000FFF7D8FD0020FFF7CBFD0420FFF7FCFD96
:101E90000620FFF73BFD0120FFF7BEFC0120FFF706
:101EA000B3FC0020FFF750FD104A136843F4803361
:101EB00013600420FFF7DEFD0720FFF71DFD012062
:101EC000FFF738FD0020FFF7C9FDFFF7A3FB002057
:101ED000FFF79AFC0220FFF705FD054A054B13604A
:101EE000054A06491160064A136008BD2C100240DD
:101EF0005400002000A24A0458000020005125028E
:101F00005C000020044B1A6842F480321A601A68A0
:101F100022F480321A60704720100240036819438F
:101F200001607047036823EA01010160704703689C
:101F3000194301607047036823EA0101016070479B
:101F4000430903F1804303F5043300F01F021968CD
:101F500001209040084318607047430903F1804313
:101F600003F5043300F01F001A68012101FA00F0A4
:101F700022EA000018607047430903F1804303F52B
:101F8000043300F01F0219680120904001431960DA
:101F90001A6822EA000018607047430903F1804381
:101FA00003F5043300F01F02196801209040084334
:101FB00018607047430903F1804303F5043300F0D0
:101FC0001F001A68012101FA00F022EA00001860DF
:101FD00070470000034A136823F0706343EA00600F
:101FE0001060704704100240032802D0052806D074
:101FF0007047054A136843F4802313607047034A0F
:10200000136843F00403F8E7001002402010024078
:10201000032802D0052806D07047054A136823F428
:10202000802313607047034A136823F00403F8E722
:102030000010024020100240044B1A689206FCD5A2
:102040001A6842F010021A60704700BF042800406E
:10205000044B1A6822F010021A601A689206FCD526
:10206000704700BF0428004038B504464FF467703D
:10207000FFF766FF40F29B30FFF762FF00F0F6FECD
:102080002046FFF77BFC0E4C0E4B00251D602560A3
:10209000FFF76CFCFFF7D0FF0B4B0C4A1D605D6037
:1020A0001D615D614FF6FF7313605360FFF7D0FF52
:1020B000236823F00803236023681B07FCD538BD81
:1020C0000428004000280040082800402028004044
:1020D00008B5FFF7B1FF054B82B2000C1A6043F858
:1020E000040CBDE80840FFF7B3BF00BF2428004040
:1020F00008B5FFF7A1FF044A136843F00203136019
:10210000BDE80840FFF7A4BF0028004008B5FFF76E
:1021100093FF044A136823F002031360BDE80840EC
:10212000FFF796BF0028004008B5FFF785FF054B75
:1021300082B2C0F303401A6043F8040CBDE80840C3
:10214000FFF786BF0C280040034B186804331B6858
:1021500043EA0040704700BF18280040034B18684E
:1021600004331B6843EA0040704700BF102800405A
:10217000034B186804331B6843EA0040704700BFF4
:102180002028004008B5FFF757FF044B020C80B22F
:102190001A605860BDE80840FFF75ABF1828004091
:1021A00008B5FFF749FF01280CD005D302280ED04F
:1021B000BDE80840FFF74CBF074A136843F001032E
:1021C0001360F5E7044A136843F00203F8E7024A94
:1021D000136843F00403F3E70028004008B5FFF755
:1021E0002BFF01280CD005D302280ED0BDE80840F3
:1021F000FFF72EBF074A136823F001031360F5E7CA
:10220000044A136823F00203F8E7024A136823F034
:102210000403F3E700280040012809D002D3022874
:102220000BD07047074A136823F00103136070470F
:10223000044A136823F00203F8E7024A136823F004
:102240000403F3E704280040012809D003D302283F
:102250000BD000207047074B186800F00100704752
:10226000044B186800F002007047024B186800F039
:10227000040070470428004008B54FF46770FFF76A
:102280005FFE40F29B30FFF75BFE00F0EFFD064B78
:102290001A6822F008021A601A681107FCD51A6839
:1022A0009206FCD508BD00BF0428004038B505469D
:1022B0004FF467700C46FFF743FE40F29B30FFF788
:1022C0003FFEFFF74BFB18B1BDE83840FFF7D4BF26
:1022D0002846FFF7C9FE2046BDE83840FFF724BF77
:1022E0002DE9F0411E460368054688461746984783
:1022F000069BC360079B0361BDF820308382094BB6
:102300000367094BC366094B83660023C0F8DC50A2
:10231000C0E900878660C0E93233C0E93433BDE8E4
:10232000F08100BF63250008C3250008452600088A
:10233000C1617047016270474162704781627047B6
:10234000D0F8DC305B6A1847D0F8DC309B6A03B108
:102350001847704710B4D0F8DC40A468A4465DF874
:10236000044B604737B5036800250446C582DB7916
:1023700000952A462946FFF7EDFFD4F8DC302946C0
:102380005B6820469847E3691BB103B0BDE8304065
:10239000184703B030BD10B4D0F8DC40E469A4465F
:1023A0005DF8044B604710B4D0F8DC40246AA446C2
:1023B0005DF8044B6047D0F8DC301B691847D0F853
:1023C000DC309B691847D0F8DC305B69184710B5E2
:1023D0000368826BD979838F994204460FD20B46EA
:1023E0000021FFF7D8FF022384F82C302368A26B6A
:1023F000D979A38F0A445B1AA263A38710BD002179
:10240000FFF7C9FF94F84430002B0CBF03230223CD
:1024100084F82C30002384F84430A387A363EDE7CD
:102420002DE9F74F04460E4600F1480500F1680B10
:1024300000F1380700F13C0800F1400AD5F800909F
:10244000B9F1000F08D0337869792A790B409A42A4
:102450000BD008355D45F1D143463A46314620461A
:1024600003B0BDE8F04F00F0B5BBCDF800A0434687
:102470003A4631462046C8470128EAD803B0BDE8AD
:10248000F08F10B5012204460021FFF794FF0023CE
:1024900084F82C3010BD70B50368828FC48EDB7950
:1024A000816BA41A9C42A8BF1C46A6B20A443346BC
:1024B00000210546FFF777FF864205D02846FFF743
:1024C000E0FF4FF0FF3070BDAB8F1E44AE87A0B26F
:1024D000F9E738B5036983638B79CA7943EA022344
:1024E000838704460D46FFF79BFF10B3EB88BBB113
:1024F000A28F21689342C9790ED97AB192FBF1F388
:1025000001FB1323B3FA83F35B0984F844302046BC
:10251000BDE83840FFF75BBF0023F6E71346F4E75A
:102520001A4619462046FFF736FF042384F82C305C
:1025300038BD2046BDE83840FFF7A3BF70B5002680
:1025400000EBC605AC6C2CB10136042EF8D14FF06F
:10255000FF3070BD85F84C1085F84D20AB642046E7
:10256000F7E770B50446002505640122294600F10D
:102570003006FFF728FFE38E2BB931462046BDE831
:102580007040FFF7A6BF94F93020002AF5DBA28A3D
:102590009A4204D22046BDE87040FFF772BF22691C
:1025A000A2632268A587D2799A4234BF0523062305
:1025B000002284F82C3020461146BDE87040FFF719
:1025C00002BF90F82C30062B10B5044612D0072B12
:1025D00027D0052B21D1FFF75EFF002809DBA28F52
:1025E000E38E9B1A2268D279934202DC062384F898
:1025F0002C3010BDFFF74FFF0028FADB04F130014B
:102600002046FFF70DFF38B100231A461946204631
:10261000FFF7C1FE0423EAE72046BDE81040FFF7BC
:1026200030BF00231A461946FFF7BDFE002384F889
:102630002C30236C1BB104F1300120469847002355
:102640002364D6E790F82C30032B10B5044607D04E
:10265000042B0ED0022B23D1BDE81040FFF7B7BEEC
:102660000723002280F82C301146BDE81040FFF708
:10267000AABE036C13B100F13001984794F83030D2
:1026800053B994F83130052B06D1618ED4F8DC3083
:10269000C9B25B6820469847002384F82C3010BDEF
:1026A000BDE81040FFF7EDBEF8B50D464988044679
:1026B00079B103680D26587C0023984201D8002088
:1026C000F8BD626806FB032252798A4203D00133C7
:1026D000F3E74FF0FF330133DBB2E3754BB9D4F8C6
:1026E000DC302046DB689847D4F8C830ABB901200D
:1026F000E6E70D226FF00C0112FB0312636813442E
:102700000022104619799142E9D9D3F8091016012F
:10271000715801B108700132F4E70023A364236506
:10272000A365236604F1C80604F1D80756F8043BF4
:1027300013B1698820469847B742F7D1D7E719887F
:102740001268012984BF01211980C37D2BB1416822
:102750000D2000FB031313F8083C13700120704791
:1027600070B5C67D40686FF00C050D2414FB06544F
:1027700020448D880479A5420CD201241C808B88CA
:10278000D0F809001B011B5803B11B781268012007
:10279000137070BD0020FCE71988022984BF022154
:1027A0001980116800230B70126801205370704764
:1027B00010B514461A88022A84BF02221A8089881A
:1027C000C9B2FFF7FCFD2368003018BF0120187064
:1027D000236800225A70012010BD08B589880122A3
:1027E000C9B2FFF7E8FD012008BD08B589880022BD
:1027F000C9B2FFF7E0FD012008BD10B50B7873B931
:102800004C887F2C0BD8D0F8DC30847593F83020BE
:102810001AB149885B68C9B29847012000E00020DE
:1028200010BD70B5C27D0D241D466FF00C0314FB66
:10283000023344688A881C442379934218D9D4F817
:1028400009304C8812019E183679A64210D99A5840
:1028500052B11470D0F8D83013B14A88898898479B
:1028600000232B80012070BD002CF3D01046FAE726
:102870000020F8E72DE9F04F4D881F462B0A022B68
:1028800089B0164611D0032B00F0E780012B40F0F1
:102890001C8102683260127839888A4228BF0A4651
:1028A0003A80012009B0BDE8F08FEDB205EB450696
:1028B0000369D0F80480136005EB86063C8818F89D
:1028C00006500193A54208EB060328BF25462A4679
:1028D000194601980293FDF705FF019B18F8066061
:1028E000641B2B44A4B200220492029A1179BDF811
:1028F0001020914203D8019B5E803D80D1E7049A6D
:1029000012010792029A0799D2F809200A44D2F8D4
:102910000890B9F1000F14D099F80080A04528BFA5
:10292000A046424618464946FDF7DCFE99F80020CD
:102930000346A4EB0804454416444344A4B2ADB294
:10294000B6B200220592029A0799D2F809200A44E9
:10295000BDF814101079884202D8049A0132C3E7F6
:102960000599D2F80CA0152000FB01F90AEB090B20
:102970001AF80980A04528BFA04642465946184685
:10298000FDF7B0FE1AF80920DBF80D100346A4EBA2
:102990000804454416444344A4B2ADB2B6B2A9B14A
:1029A000DBF81180A045A8BFA0461FFA88F94A4667
:1029B0001846FDF797FEDBF811200346A4EB090447
:1029C0004D4416444B44A4B2ADB2B6B24FF0000928
:1029D0009BF804101FFA89F2914202D8059A01323D
:1029E000B0E7DBF809200692C9EB091A52440392BA
:1029F000069A039912F80A80A04528BFA0464246CD
:102A00001846FDF76FFE069A12F80A201644039A3C
:102A1000D2F807100346A4EB080445444344A4B28B
:102A2000ADB2B6B2B1B1D2F80B80A045A8BFA046F6
:102A30001FFA88FA52461846FDF754FE039AD2F858
:102A40000B200346A4EB0A04554416445344A4B295
:102A5000ADB2B6B209F10109BAE715F0FF05046994
:102A60000DD10923A3700423E37023703B88042B4A
:102A700028BF04233B8003236370346011E783681D
:102A80001BB3C268013DAA421FDD898840F209429A
:102A900091421AD153F825502846FDF736FE0130F1
:102AA0004000C0B220703B88984228BF184638804A
:102AB00029463B885B084A1B013B9342DBDD04EB64
:102AC000420211F8013B5380F3E70020EAE619883F
:102AD000022984BF02211980116800230B7012683B
:102AE00001205370704710B5002200F1C80454F85B
:102AF000043B3BB18B4208D00132042AF7D14FF09E
:102B0000FF3010BD323240F822100020F9E7C0F843
:102B1000D810704710B44C78092C13D8DFE804F0B3
:102B20000E12121212100C120A05084CA4465DF87F
:102B3000044B6047064CF9E7064CF7E7064CF5E70F
:102B4000064CF3E700205DF8044B7047A926000807
:102B50003F2700087528000899270008FB27000870
:102B600010B44C780A2C09D00B2C02D044B9064C76
:102B700000E0064CA4465DF8044B6047044CF9E7BE
:102B800000205DF8044B7047CF2A00082328000876
:102B90006127000810B44C78012C06D012D3032C06
:102BA00008D000205DF8044B70474C88002CF8D109
:102BB000054C03E04C88002CF3D1044CA4465DF88E
:102BC000044B6047024CF9E7EB270008DB270008BD
:102BD000B127000810B40C7814F0600F06D104F08F
:102BE0001F04012C0AD005D3022C0BD000205DF865
:102BF000044B70475DF8044BFFF78CBF5DF8044B46
:102C0000FFF7AEBF5DF8044BFFF7C4BF08B540F255
:102C10009730FFF795F9064A0649074800231360E5
:102C20000B6041F80C3C4FF41C43136008BD00BF1F
:102C3000405C0040505C00402843002001320239D3
:102C4000521001EB4202914200D1704731F8023F2D
:102C500003600430F7E7F0B502F0010652080D46B4
:102C6000044613462BB91EB111F8223000F8123079
:102C7000F0BD35F8047B24F8027B013B9BB2F1E701
:102C8000FEE77047FEE7FEE7FEE7FEE738B51B49C3
:102C90001B4C1C480022531883421BD31A4A0021A4
:102CA00093421BD3194A1A4C13681A4D43F400730C
:102CB0001360536F43F470035367AC4211D3164C47
:102CC000164DAC4211D3FDF77BFE154C154DAC42B1
:102CD0000FD338BD135953500432DCE71960043365
:102CE000DEE754F8043B9847E7E754F8043B98477D
:102CF000E7E754F8043B9847E9E700BF00000020ED
:102D00007C360008600000202C44002014ED00E018
:102D10007036000870360008703600087C360008EF
:102D20007C3600087C360008054B420903EB820321
:102D300000F01F00012202FA00F01860704700BF87
:102D400000E100E0054B420903EB820300F01F00A5
:102D5000012202FA00F01860704700BF80E100E035
:102D6000074B420903EB820300F01F001A6801239E
:102D700003FA00F0104214BF18460020704700BF4D
:102D800000E200E0054B420903EB820300F01F0064
:102D9000012202FA00F01860704700BF00E200E074
:102DA000054B420903EB820300F01F00012202FAE7
:102DB00000F01860704700BF80E200E0074B420956
:102DC00003EB820300F01F001A68012303FA00F0EE
:102DD000104214BF18460020704700BF00E100E019
:102DE000432893BF00F1604000F00F00034B00F553
:102DF00064408CBFC1540170704700BF14ED00E007
:102E0000074B420903EB820300F01F001A680123FD
:102E100003FA00F0104214BF18460020704700BFAC
:102E200000E300E0EF289FBF024B1A6810431860D0
:102E3000704700BF00EF00E0FEE708B5FFF7FCFFBA
:102E4000014B1888704700BFE0F7FF1F044B1B6859
:102E50000360044B1B684360034B1B68836070472F
:102E6000F0F7FF1FECF7FF1FE8F7FF1F024A136898
:102E700043F480731360704700700040024A136887
:102E800023F480731360704700700040054A136894
:102E900023F0E0031360136843F01003184310603D
:102EA000704700BF00700040024A136823F010030F
:102EB0001360704700700040024A136843F0080333
:102EC0001360704700700040024A136843F0040327
:102ED0001360704700700040024A136843F0020319
:102EE0001360704700700040024A136823F0020329
:102EF0001360704700700040024A136823F001031A
:102F00001360704700700040024A136843F00103E9
:102F10001360704700700040024A136843F48073E6
:102F20001360704704700040024A136823F48073F2
:102F30001360704704700040034B186880F0040071
:102F4000C0F38000704700BF04700040024B186857
:102F5000C0F34000704700BF04700040024B186887
:102F600000F00100704700BF04700040024B41F0C8
:102F700080011960704700BF4C5C00403E2A11D9A7
:102F8000013AC2F34412501C400142F02002084BA7
:102F90001B689BB203EBC1014900064B920292B23F
:102FA0005A50704701325208500080B2EFE700BF1C
:102FB000505C00400C600040F7B5424C089F01F0A7
:102FC0007F0605464FF0C060CDE90040B40004F133
:102FD000804404F5B8440DF1080C206820F4E0406A
:102FE00020F07F00304380B2206020680CEB42026A
:102FF00020F4EC4032F8082CDFF8D0C020F070004C
:10300000104349B280B2002920602ADB4EB3DCF8BD
:1030100000202D4992B202EBC602520011442A8BC5
:103020000A6028461A463146FFF7A8FF002F44D110
:10303000236823F4415323F030031B041B0C23604B
:10304000236823F4804323F070039BB283F440533E
:1030500043F4004343F0800323602B8B1844288300
:1030600029E0DCF80020288B92B202EBC602520065
:1030700002F1804202F5C04210601FB10C2202FB37
:1030800006529766226822F4E04222F030021204CF
:10309000120C2260226822F4E04222F0400292B236
:1030A00082F0200242F4004242F0800218440029DB
:1030B00022602883ABDA03B0F0BD0C2303FB065675
:1030C000F766B5E70002000408600040505C00406D
:1030D00070B50C4A0C4E0D4D0D4C48F28001136832
:1030E00033400B439BB2136013682B400B439BB2DE
:1030F00042F8043BA242F2D10368DB7920335B0043
:10310000038370BD045C0040BF8FFFFF8FBFFFFFD4
:10311000205C004010B589B92B480368002A23F4CD
:10312000E04323F040030CBF2024102463401BB273
:1031300043F4004343F080039BB203600B0622D5A7
:1031400001F07F01890001F1804101F5B841002AB9
:103150000B6823F4E04323F040030CBF202210222D
:1031600083EA02031BB243F4004343F080039BB2A3
:103170000B6007D10B6823F4E04323F030031B04FA
:103180001B0C0B6010BD890001F1804101F5B841B5
:103190003AB90B6823F4415323F030031B041B0C92
:1031A0000B600B68002A23F4804323F070030CBFEC
:1031B0004FF440524FF4805253401BB243F400434B
:1031C00043F080039BB2DCE7005C00400B060ED5A9
:1031D00001F07F01890001F1804101F5B8410868E3
:1031E00000F03000102814BF002001207047890033
:1031F00001F1804101F5B841086800F44050B0F594
:10320000805FF0E70B0612D40B4B0C485A54890030
:1032100001F1804101F5B8410B6803409BB23AB11E
:1032200083F4005343F4004343F080030B60704782
:1032300083F44053F6E700BF244400208FBFFFFF14
:1032400001F07F01F8B58C0004F1804404F5B84426
:103250001D46236803F03003302B944628D0154FC9
:103260003A68CE0016FA82F2520002F1804202F56C
:10327000C04261461088400000F180402A4600F5B7
:10328000C040FFF7DBFC39680B4B16FA81F14900AF
:103290005D50226822F4E04222F0400292B282F0B5
:1032A000300242F4004242F0800222602846F8BD1B
:1032B0000025FBE7505C00400460004010460AB265
:1032C000F8B5940004F1804404F5B8441D46236821
:1032D00003F44053B3F5405F0E463AD01E491F4FEA
:1032E0000B68D20012FA83F35B00FB58C3F30903A7
:1032F000AB4206DA0B6812FA83F35B00FD58C5F3A4
:1033000009050B6812FA83F25200154B995A4900CD
:1033100001F180412A4601F5C041FFF79CFC23687A
:1033200023F0F0031B051B0D43F0800323600D4BBE
:103330009B5D63B9226822F4804222F0700292B24F
:1033400082F4405242F4004242F080022260284659
:10335000F8BD0025FBE700BF505C00400C6000405A
:103360000860004024440020374A136813F4806F3B
:103370002DE9F04105469FB2164608D04FF6FF33BF
:10338000136040230383BDE8F041FEF7EBBF1C044C
:103390001FD503F00F084FEA880404F1804413F0AE
:1033A000100304F5B84436D0236819053CD508232A
:1033B00000F130024146FFF781FF022308EB48028B
:1033C00013441A3355F82330002B2FD0414628469A
:1033D00098473A0505D54FF2FF7333602B6A03B166
:1033E0009847FB0405D54EF6FF7333606B6A03B153
:1033F000984717F4007F154C05D0AB6A4FF6FF5283
:103400003260E3B19847AB6ACBB1236843F40073F1
:103410002360BDE8F081226822F0F0021205120D4F
:1034200042F400422260C9E70123C7E7236823F082
:10343000F0031B051B0D43F080032360C9E72368DD
:1034400023F40073E4E700BF445C0040405C0040AC
:1034500000000000000000000102000871010008E7
:10346000BD0100080000000000000000F501000898
:103470007D010008BD010008000000000000000000
:103480000D02000889010008BD01000800000000CD
:1034900000000000BF01000895010008BD01000800
:1034A000000000000000000091060008A1010008D3
:1034B000BD0100080000000000000000AD01000890
:1034C000AF010008BD01000800000000000000007E
:1034D00000000000010000000200000003000000E6
:1034E000480100204001002000440008FCBF0020EB
:1034F000010000000000803F0000E04001000100EA
:103500000000803F0000E040010300010000803F18
:1035100000000000010100000000803F000080402A
:1035200001001E000000000000000000000000007C
:103530000000280000000000000000000000000063
:1035400000003C000000000000000000000000003F
:10355000000050000000000000000000000000001B
:10356000320000001201000202000040B404080012
:1035700001000102030109020000020100803284FF
:1035800035000800000000000100000000000000FD
:10359000B935000800000000010000000000000034
:1035A000A435000809040100020A000000E135000A
:1035B00008000000000000000009040000010202F1
:1035C0000100FF350008CE35000813000000052477
:1035D0000010010524010001042402000524060056
:1035E000010705010240000100000000000000008A
:1035F00007058202400001000000000000000007F3
:103600000583031000FF0000000000000000426C72
:1036100061636B2053706865726520546563686EE2
:103620006F6C6F67696573004344432D41434D20C0
:1036300044656D6F0044454D4F0000000D2C00089F
:103640006D2F0008B92F0008D1300008153100088F
:1036500005320008CD31000841320008BD320008B3
:1036600069330008000000000000000000000000B6
:0C367000E1090008290F0008B91000084B
:10367C0008000000000C01400B000000100C014081
:10368C00080C0140000801400D000000100801402A
:10369C0008080140000801400C000000100801401F
:1036AC000808014034000020000801400B00000015
:1036BC0010080140080801400E36000828360008A2
:1036CC003536000800127A0000127A0000127A00D7
:0400000508002C8D36
:00000001FF
